:020000040800F2
:100000000018002045180008C7030008C9030008AD
:1000100000000000000000000000000000000000E0
:10002000000000000000000000000000CB030008FA
:100030000000000000000000CD030008CF0300080E
:10004000C5180008C5180008C5180008C51800081C
:10005000C5180008C5180008C5180008C51800080C
:10006000C5180008C5180008C5180008C5180008FC
:10007000C5180008C5180008C5180008C5180008EC
:10008000C51800080000000000000000C5180008A6
:1000900000000000C5180008C5180008C5180008B1
:1000A00000000000C5180008C5180008C5180008A1
:1000B000C518000800000000C5180008C518000891
:1000C00010B5064C2378002B07D1054B002B02D02E
:1000D000044800E000BF0123237010BD0C00002085
:1000E0000000000020190008044B10B5002B03D0BD
:1000F0000349044800E000BF10BDC04600000000F6
:100100001000002020190008002243088B4274D3FD
:1001100003098B425FD3030A8B4244D3030B8B4208
:1001200028D3030C8B420DD3FF22090212BA030C11
:100130008B4202D31212090265D0030B8B4219D3F2
:1001400000E0090AC30B8B4201D3CB03C01A524112
:10015000830B8B4201D38B03C01A5241430B8B425A
:1001600001D34B03C01A5241030B8B4201D30B0343
:10017000C01A5241C30A8B4201D3CB02C01A52416A
:10018000830A8B4201D38B02C01A5241430A8B422D
:1001900001D34B02C01A5241030A8B4201D30B0216
:1001A000C01A5241CDD2C3098B4201D3CB01C01A30
:1001B000524183098B4201D38B01C01A524143093A
:1001C0008B4201D34B01C01A524103098B4201D328
:1001D0000B01C01A5241C3088B4201D3CB00C01A95
:1001E000524183088B4201D38B00C01A524143080D
:1001F0008B4201D34B00C01A5241411A00D2014632
:10020000524110467047FFE701B5002000F006F8A4
:1002100002BDC0460029F7D076E770477047C04658
:1002200030B589B01422002103A801F071FB174BEF
:1002300059698020C002014359615A690240019204
:10024000019A5A69802189020A435A615B690B400D
:100250000293029B9025ED0500228021280000F0EA
:10026000C3FF2023039300240494059403A92800CA
:1002700000F0EAFE802303937F3B049305940694E9
:1002800003A9280000F0E0FE09B030BD00100240D4
:1002900030B585B00C22002101A801F039FB134CC8
:1002A000134B236000256560A560E5600123236191
:1002B0000422626125766576A576E576C222FF3254
:1002C000E26125629E3AFF3AA554A362200000F045
:1002D00053F9019580235B01029380235B0503930F
:1002E00001A9200000F00AFA05B030BDD0000020BE
:1002F0000024014010B50948094B036010234360F6
:1003000000238360C3600361436103764376837691
:10031000C3760377437700F0C1FF10BD28000020AB
:100320000064004010B50948094B036096231B0286
:10033000436000238360C36003610C2242618361D8
:10034000C3610362436201F045FA10BD5000002012
:100350000044004010B592B03022002106A801F000
:10036000D7FA10241022002101A801F0D1FA12239B
:100370000593113B08930A9309940B94002405A854
:1003800000F062FA0723019302940394049400217D
:1003900001A800F045FD12B010BD10B500F020FE20
:1003A000FFF7D8FFFFF73CFFFFF772FFFFF7A2FF51
:1003B000FFF7B8FF90208021C00500F01BFF6420EC
:1003C00000F030FEF6E77047FEE77047704710B563
:1003D00000F016FE10BD000082B00C4B996901229E
:1003E0001143996199690A400092009ADA69802163
:1003F00049050A43DA61DB690B400193019B044A1A
:10040000136810210B43136002B0704700100240C4
:100410000000014010B588B004001422002103A898
:1004200001F076FA2268124B9A4201D008B010BD52
:10043000104B996980208000014399619A690240BC
:100440000192019A5A69802189020A435A615B69C3
:100450000B400293029B0123039302330493002376
:1004600005937138FF3803A9C00500F0EDFDDDE705
:100470000024014000100240F0B589B004001422AD
:10048000002103A801F044FA22681E4B9A4201D0D1
:1004900009B0F0BD1C4BD969802080040143D961AB
:1004A000DA6902400092009A59698020C002014333
:1004B00059615A6902400192019A5A698021890260
:1004C0000A435A615B690B400293029B80235B00E5
:1004D0000393022704970026059603250695042416
:1004E000079403A9094800F0AFFD80235B01039343
:1004F0000497059606950794902003A9C00500F07F
:10050000A3FDC5E70064004000100240000400485D
:1005100010B588B004001422002103A801F0F8F9F6
:100520002268134B9A4201D008B010BD114BD96913
:10053000802292021143D961D96911400191019938
:100540005969114359615B691A400292029B0C235D
:1005500003930A3B04930023059303330693023B62
:100560000793902003A9C00500F06EFDDCE7C046AC
:10057000004400400010024070B5041E00D1B4E0F9
:10058000836B002B00D180E0A36BDB0600D5A6E0D7
:1005900022689168042005000D40084200D09EE0CA
:1005A000A16B534B19400633FF331943A163916884
:1005B00001330B40012B6ED0D36818218B43A16807
:1005C0000B43D360226813699B009B0861680B434F
:1005D00013612268D36847490B40D360237E9B0395
:1005E000627ED2031343A17E4A031343A26A012A07
:1005F00058D0802252011343E26813432269022A31
:1006000052D02B432422A25C52001343E27E012AE3
:100610004CD0E269C221FF318A4202D0216A0A43EA
:1006200013432168CA681A43CA60E26A80214905F7
:100630008A420DD0012A0BD0022A09D0032A07D002
:10064000042A05D0052A03D0062A01D0072A0AD198
:100650002068416907229143416120684169E56A48
:100660002A400A4342612268D26823490A409A42DA
:100670002BD0A36B12229343023A1343A363E36B81
:100680000F3A1343E36301202EE0C3633422835403
:10069000FFF7C0FE78E71368DB079AD4D3681B0422
:1006A00097D489E72A00A6E70425AAE7002903D101
:1006B000802252021343ACE7A26B20210A43A263BB
:1006C000E26B1F390A43E263A3E70023E363A36BF2
:1006D00003229343023A1343A363002004E0A36B75
:1006E00010221343A363012070BD0120FCE7C04624
:1006F000FDFEFFFF1902FEFFE7FF3F8330B583B029
:100700000400002301933433C35C012B00D18BE040
:1007100034230122C25403689A68520776D4434AAC
:100720004868904257D09A6A01200D68A840024359
:100730009A62E36A8022520593421ED0012B1CD09C
:10074000022B1AD0032B18D0042B16D0052B14D053
:10075000062B12D0072B10D02268506907230340C4
:100760008868984209D050690723984350612068EF
:1007700042698D682B40134343610B681A00103A9D
:10078000022A4DD82A4A1268102B0ED0112B09D0FC
:1007900080235B041343264A13600B68102B07D099
:1007A000002038E08023DB03F4E780231B04F1E71B
:1007B000204B18682049FFF7A7FC03008000C018F1
:1007C0004000019002E0019B013B0193019B002B43
:1007D000F9D100201FE09A6A01200D68A8408243E9
:1007E0009A620B681A00103A022A1BD8104A126843
:1007F000102B09D0112B05D0104B13400C4A13605D
:10080000002008E00E4BF8E70E4BF6E7836B202242
:1008100013438363012034230022E25403B030BD2C
:100820000020F8E70020F6E70220F7E701100000BB
:10083000082701400800002040420F00FFFFFFFE94
:10084000FFFFBFFFFFFF7FFF70B582B0041E00D126
:100850007FE20368DB072BD5B34B5A680C231340A8
:10086000042B1DD0B04B5A680C231340082B0ED01C
:100870006368012B41D0002B56D1AB4B1A68AB49B2
:100880000A401A601A68AA490A401A603BE0A64B5F
:100890005B68C02252021340802252029342E7D189
:1008A000A14B1B689B0303D56368002B00D153E267
:1008B00023689B0777D59C4B5B680C221A4262D059
:1008C000994B5A680C231340082B53D0E368002B34
:1008D00000D18AE0944A136801210B43136000F0B1
:1008E0009BFB0500904B1B689B0775D400F094FBA5
:1008F000401B0228F6D903202CE28B4A1168802382
:100900005B020B4313606368002B25D000F084FB6F
:100910000500854B1B689B03CAD400F07DFB401B80
:100920006428F6D9032015E2052B09D07E4B1A68FE
:100930007E490A401A601A687D490A401A60E2E757
:10094000794B19688022D2020A431A601968802202
:1009500052020A431A60D6E700F05EFB0500724BB4
:100960001B689B03A4D500F057FB401B6428F6D9F5
:100970000320EFE16C4B5B68C022520213408022DF
:1009800012029342A2D1684B1B689B0703D5E36810
:10099000012B00D0E2E164490B68F82293432269FD
:1009A000D20013430B6023681B0744D5E369002B77
:1009B0002ED05D4A536A01210B43536200F02CFB99
:1009C0000500594B5B6A9B0735D400F025FB401BA3
:1009D0000228F6D90320BDE153490B68F82293435E
:1009E0002269D20013430B60DDE74F4A13680121EF
:1009F0008B43136000F010FB05004B4B1B689B07FB
:100A0000D1D500F009FB401B0228F6D90320A1E153
:100A1000454A536A01218B43536200F0FDFA0500F9
:100A2000414B5B6A9B0706D500F0F6FA401B022893
:100A3000F6D903208EE123685B0700D480E03A4BAF
:100A4000DB69DB001DD4384AD169802040050143B1
:100A5000D161D36903400193019B0125354B1B688C
:100A6000DB0510D5A368012B21D0002B36D12E4BEE
:100A70001A6A01218A431A621A6A03318A431A6286
:100A80001AE00025EAE72B4A116880235B000B433C
:100A9000136000F0C1FA0600264B1B68DB05E1D4A9
:100AA00000F0BAFA801B6428F6D9032052E11E4AEE
:100AB000136A01210B431362A368002B24D000F0BA
:100AC000ABFA0600184B1B6A9B0737D400F0A4FA58
:100AD000801B194B9842F5D903203BE1052B09D027
:100AE000114B1A6A01218A431A621A6A03318A4336
:100AF0001A62E1E70C4B1A6A04210A431A621A6A65
:100B000003390A431A62D7E700F086FA0600064B5B
:100B10001B6A9B0712D500F07FFA801B064B984298
:100B2000F5D9032016E1C04600100240FFFFFEFF8A
:100B3000FFFFFBFF0070004088130000012D39D03B
:100B40002368DB0610D56369012B39D0053357D1F3
:100B5000894A536B04218B435363536BF4318B43AA
:100B6000A169C9000B43536323689B066ED5824B72
:100B70005A680C2313400C2B60D07F4B5A680C230F
:100B80001340082B53D0236A002B7ED07A4A516B36
:100B900080235B020B43536300F03EFA0500764B63
:100BA0005B6BDB0352D400F037FA401B0228F6D906
:100BB0000320CFE0704AD36970490B40D361BFE78F
:100BC0006D4B5A6B04210A435A635A6B03390A432B
:100BD0005A6300F021FA0500674B5B6B9B0706D454
:100BE00000F01AFA401B0228F6D90320B2E062494D
:100BF0004B6BF8229343A269D20013434B63B3E7D4
:100C00005D4B5A6B04210A435A635A6B03398A437A
:100C10005A6300F001FA0500574B5B6B9B07A3D5A5
:100C200000F0FAF9401B0228F6D9032092E0524B5B
:100C30005B68C022520213409342A4D14E4B5B6BBF
:100C4000DB0303D5236A012B00D089E0636A002B04
:100C500000D187E0484A51680C220A40082A60D037
:100C6000022B25D0444A136845490B40136000F01D
:100C7000D3F90400404B1B689B0150D500F0CCF920
:100C8000001B0228F6D9032064E03B4A536B3D4920
:100C90000B40536300F0C0F90500374B5B6BDB037F
:100CA000D4D500F0B9F9401B0228F6D9032051E051
:100CB000314A136832490B40136000F0ADF905006A
:100CC0002D4B1B689B0106D500F0A6F9401B02289E
:100CD000F6D903203EE0284BDA6A0F218A43216BC4
:100CE0000A43DA625A6828490A40E16AA06A014365
:100CF0000A435A601968802252040A431A6000F0BD
:100D00008BF904001C4B1B689B0106D400F084F98E
:100D1000001B0228F6D903201CE000201AE0002066
:100D200018E0012B20D0144B5A68D96AC0235B020B
:100D30001340A06A834219D10F230B40216B8B42D1
:100D400016D1F0239B031A40E36A9A4212D1002085
:100D500000E0012002B070BD0120FBE70120F9E7AF
:100D60000120F7E70020F5E70120F3E70120F1E794
:100D70000120EFE70120EDE700100240FFFFFFEF49
:100D8000FFFFFFFEFFFFFEFFFF7FC2FF10B588B031
:100D900004AA1E4B13CB13C21B6813606A461C4B7C
:100DA00013CB13C21B6813601A4B5A680C231340F1
:100DB000082B04D00C2B26D1174808B010BD910C7D
:100DC0000F23194004A8445C1249C96A0B406946C4
:100DD000C95CC0235B021A4080235B029A4208D0A0
:100DE000C0235B029A4209D00C48FFF78DF960439B
:100DF000E3E70A48FFF788F96043DEE70648FFF7B4
:100E000083F96043D9E70548D7E7C0463819000899
:100E10004C19000800100240006CDC0200127A003D
:100E200070B504000D00002800D186E0474B1A6819
:100E3000012313408B420AD244490B680122934399
:100E40002B430B600B681A40AA4200D077E023685E
:100E50009A070ED55B0705D53D4A5168E023DB00B4
:100E60000B4353603A4A5368F0218B43A1680B430C
:100E700053602368DB0735D56368012B09D0022B4B
:100E800024D0032B28D0324A1268920705D40120BF
:100E900052E02F4A1268920353D52D494A68032025
:100EA000824313434B6000F0B7F80600284B5B68A1
:100EB0000C221A4063689B009A4213D000F0ACF8F1
:100EC000801B244B9842F1D9032035E0204A126858
:100ED0009201E2D401202FE01D4A526BD203DCD4F0
:100EE000012029E0194B1A6801231340AB4209D9AC
:100EF00016490B68012293432B430B600B681A4081
:100F0000AA4220D123685B0706D5114A53681249CB
:100F10000B40E1680B435360FFF738FF0C4B5A68F6
:100F200012090F2313400D4AD35CD8400C4B1860B4
:100F3000002000F02DF8002070BD0120FCE701200A
:100F4000FAE70120F8E70120F6E7C046002002405A
:100F50000010024088130000FFF8FFFF601900082E
:100F600008000020014B18687047C04608000020A8
:100F700010B5FFF7F7FF044B5A68120A0723134016
:100F8000024AD35CD84010BD00100240701900081E
:100F900010B504000F4B1978FA208000FFF7B4F861
:100FA00001000D4B1868FFF7AFF800F05BF900285F
:100FB0000DD1032C01D901200AE0013000222100CB
:100FC000404200F01FF9054B1C60002000E00120AA
:100FD00010BDC046000000200800002004000020D2
:100FE00010B5064A136810210B4313600020FFF769
:100FF000CFFFFFF7F1F9002010BDC04600200240EE
:10100000034A1168034B1B785B1813607047C04696
:101010001001002000000020014B18687047C046F6
:101020001001002070B50400FFF7F6FF0500631CF7
:1010300002D0044B1B78E418FFF7EEFF401BA042E0
:10104000FAD370BD00000020F0B5D6464F464646A4
:10105000C0B582B0002371E084683C40A446CC68EF
:10106000B44065462C4384604468944322004C6835
:101070002409A446012465462C409C401443446046
:10108000C26817408A68B2403A43C2604A68D200D8
:1010900053D5504CA66901221643A661A46922408B
:1010A0000192019A9A08941CA4004B4EA75903245C
:1010B0001C40A4000F26A640B7439026F605B04278
:1010C0007ED0464EB0427DD0454EB04276D0052609
:1010D000A64034003C43023292003F4E9451414AB4
:1010E00014684A46D24326004D46AE434D68ED0390
:1010F00002D54D462C4326003A4C266064682600F3
:1011000016404D68AD0302D54D462C432600354CA4
:101110006660A468260016404D68ED0202D54D4673
:101120002C4326002F4CA660E46822404D68AD0297
:1011300001D54A4622432B4CE26001330C68220061
:10114000DA4041D001229A4025001540A9461442B8
:10115000F3D04C68022C01D0122C0ED1DC080834DC
:10116000A400275807261E40B6000F25B540AF4300
:101170000D69B5402E003E4326500468A4465E002B
:101180000324A2462700B740B846FF4365464446BD
:10119000A543AC464C68554625402C00B4406546F6
:1011A0002C4304604C68651E012D00D854E7112CB7
:1011B00000D151E7122C00D062E74DE7022687E705
:1011C000002685E7012683E702B01CBC90469946BD
:1011D000A246F0BD0010024000000140000400489B
:1011E0000008004800040140002A01D081617047D6
:1011F0008162FCE74369194202D0090481617047AA
:101200008161FCE770B5002811DB8308134EC03301
:101210009B009D5903242040C000FF2214008440FD
:10122000A54389010A4082402A439A5170BD0F2389
:101230000340083B9B0806339B00094A94466344DD
:101240005C6803221040C000FC3215008540AC43AE
:1012500089010A40824022435A60E7E700E100E04A
:1012600000ED00E0013880235B0498420FD2094A68
:1012700050600948036A1B021B0AC02109060B4380
:10128000036200239360073313600020704701203E
:10129000FCE7C04610E000E000ED00E070B5041E81
:1012A00000D1A0E02023C35C002B1AD02268136871
:1012B00002218B431360FFF7AFFE050023685A68D5
:1012C000920711D5FFF7A8FE401B0A28F6D9626ADB
:1012D00080239B021343636220230522E2540120F2
:1012E00070BDFFF7C9F8E1E71A6801210A431A60E7
:1012F000FFF792FE050023685A68D2070ED4FFF765
:101300008BFE401B0A28F6D9626A80239B02134396
:10131000636220230522E2540120E1E7227E012AB4
:101320003ED01A6880218A431A60637E012B3CD02C
:101330002268136840218B431360A37E012B3AD0AF
:101340002268136820218B431360E37E012B38D081
:101350002268136810210B431360237F012B36D0C2
:101360002268136808218B431360637F012B34D0FC
:101370002268136804218B431360A368E268134357
:1013800022691343626913436268013A2168134377
:10139000CB610023636220330122E25400209FE7E7
:1013A0001A6880210A431A60BFE722681368402147
:1013B0000B431360C1E72268136820210B431360BD
:1013C000C3E72268136810218B431360C5E72268C6
:1013D000136808210B431360C7E7226813680421D0
:1013E0000B431360C9E701207AE7000070B50400E1
:1013F00083680269134342691343C2691343016856
:101400000A686D48024013430B60226853686B49B9
:101410000B40E1680B435360226AA3691A432168B9
:101420008B686748034013438B602368654A934287
:101430001DD0654A93422BD0102580231B02E26900
:101440009A422FD0042D00D1A2E07DD8002D00D1EA
:1014500093E0022D75D1636858085C4B9C4660444C
:101460006168FEF751FE0004000C00257DE0584B3A
:101470001A6B03231340022B0CD005D8002B0BD082
:10148000012B0BD10425D8E7032B09D10225D4E782
:101490000025D2E70825D0E70025CEE71025CCE7C8
:1014A0001025CAE7042D3FD012D8002D30D0022DD0
:1014B0000BD163685808474B9C4660446168FEF74F
:1014C00023FE0004000C002513E00125002010E09D
:1014D000082D0CD16368580880235B029C46604449
:1014E0006168FEF711FE0004000C002501E00125F3
:1014F0000020394A0300103B934255D80F230200C5
:101500009A434008083B184010432368D8604EE0D7
:10151000FFF72EFD400063685B08C0186168FEF7A6
:10152000F3FD0004000CE4E7FFF730FC40006368C3
:101530005B08C0186168FEF7E7FD0004000C002599
:10154000D7E70125002010E0082D0CD1636858086A
:1015500080231B029C4660446168FEF7D5FD0004B1
:10156000000C002501E0012500201B4A0300103B70
:1015700093421BD82368D86019E0FFF7F9FC636831
:101580005B0818186168FEF7BFFD0004000CECE76B
:10159000FFF7FCFB63685B0818186168FEF7B4FD91
:1015A0000004000C0025E0E7012500E001250023F0
:1015B00023666366280070BDF369FFEFFFCFFFFF6E
:1015C000FFF4FFFF003801400044004000127A00A1
:1015D000001002400024F400EFFF0000436ADB0724
:1015E00006D5026853682C490B40816A0B4353604F
:1015F000436A9B0706D50268536828490B40C16AB5
:101600000B435360436A5B0706D50268536824495D
:101610000B40016B0B435360436A1B0706D50268FE
:10162000536820490B40416B0B435360436ADB0610
:1016300006D5026893681C490B40816B0B4393608D
:10164000436A9B0606D50268936818490B40C16B34
:101650000B439360436A5B060BD5026853681449D9
:101660000B40016C0B43536080235B03026C9A4276
:101670000AD0436A1B0606D5026853680D490B4021
:10168000816C0B4353607047026853680A490B40F2
:10169000416C0B435360ECE7FFFFFDFFFFFFFEFFD4
:1016A000FFFFFBFFFF7FFFFFFFEFFFFFFFDFFFFFFE
:1016B000FFFFEFFFFFFFF7FFFFFF9FFFF8B5CE46ED
:1016C000474680B506000D0017009946089B9846CE
:1016D0003368DC692C40641B63425C41BC423CD1F2
:1016E00043460133F4D0FFF797FC4B46C01A404500
:1016F00020D84346002B1DD033681A685207E7D51F
:10170000DA691205E4D5802212011A623268136880
:1017100014490B40136032689368A331FF318B4347
:10172000936020237367B367F36750330022F2544A
:10173000032013E0326813680A490B4013603268D3
:101740009368A331FF318B43936020237367B367A2
:1017500050330022F254032000E000200CBC9046DD
:101760009946F8BD5FFEFFFF30B583B0040000234B
:10177000C367FFF751FC050023681B681B070CD4E7
:1017800023681B685B0715D420236367A367503366
:101790000022E254002003B030BD80210C4B0093A6
:1017A0000300002289032000FFF788FF0028E7D00C
:1017B0000320F0E78021064B00932B000022C90391
:1017C0002000FFF77BFF0028DED00320E3E7C046C0
:1017D000FFFFFF0110B5041E2ED0436F002B21D058
:1017E000242363672268136801218B431360200060
:1017F000FFF7FCFD012814D0636A002B18D1226882
:1018000053680E490B405360226893682A218B432A
:1018100093602268136829390B4313602000FFF797
:10182000A3FF10BD70330022C254FEF771FED7E74C
:101830002000FFF7D3FEE2E70120F2E7FFB7FFFF4A
:10184000704700001348854613480168090E134A83
:10185000914205D1124813490160134813490160B0
:1018600013481449144A002302E0D458C4500433E6
:10187000C4188C42F9D3114A114C002301E01360C3
:101880000432A242FBD3FFF7DBFF00F01DF8FEF7A6
:1018900084FDFEE700180020040000001F00000087
:1018A000181002400100000000000140000000008C
:1018B000000000200C000020801900080C0000200F
:1018C00014010020FEE7000070B500260C4D0D4C01
:1018D000641BA410A64209D1002600F021F80A4D8D
:1018E0000A4C641BA410A64205D170BDB300EB588E
:1018F00098470136EEE7B300EB5898470136F2E718
:101900007819000878190008781900087C1900086F
:1019100003008218934200D1704719700133F9E730
:10192000F8B5C046F8BC08BC9E467047F8B5C0463E
:08193000F8BC08BC9E4670479C
:1019380002030405060708090A0B0C0D0E0F101008
:10194800000000000102030405060708090A0B0C41
:101958000D0E0F1000000000000000000000000045
:10196800010203040607080900000000010203043D
:04197800E90000087A
:04197C00C10000089E
:0C198000010000000400000000127A00CA
:040000050800184592
:00000001FF
